:020000040800F2
:1000000000500020890700089106000897060008A4
:100010009D060008A3060008A906000800000000CD
:10002000000000000000000000000000AF06000813
:10003000BB06000800000000C7060008D306000841
:10004000D1070008D1070008D1070008D107000830
:10005000D1070008D1070008D1070008D107000820
:10006000D1070008D1070008D1070008D107000810
:10007000D1070008D1070008D1070008D107000800
:10008000D1070008D1070008E1060008D1070008E1
:10009000D1070008D1070008D1070008D1070008E0
:1000A000D1070008D1070008D1070008D1070008D0
:1000B000D1070008D1070008D1070008D1070008C0
:1000C000D1070008D1070008D1070008D1070008B0
:1000D000D1070008FD060008D1070008D107000875
:1000E000D1070008D1070008D10700080000000070
:1000F0000000000000000000000000000000000000
:0C01000000000000000000005FF808F1A3
:10010C0010B5054C237833B9044B13B10448AFF345
:10011C0000800123237010BD70000020000000003F
:10012C000C3A000808B5034B1BB103490348AFF365
:10013C00008008BD00000000740000200C3A00088C
:10014C00034613F8012B002AFBD1181A013870470B
:10015C0080B500AF00F038FB00F062F800F062F9F7
:10016C0000F0BAF800F034F900F0F4F8234800F08D
:10017C0089FC234800F086FC4FF0FF31204800F04A
:10018C002FFD1F4800F032FE03469AB21D4B1A8019
:10019C001C4B1B881A461C491C4802F0B7FF1B4815
:1001AC00FFF7CEFF03469AB24FF0FF3317491848BA
:1001BC0002F0A6F94FF0FF31104800F011FD0F4886
:1001CC0000F014FE03469AB2124B1A80114B1B8896
:1001DC001A461149114802F099FF1048FFF7B0FF79
:1001EC0003469AB24FF0FF330C49094802F088F9E4
:1001FC004FF47A7000F04AFBBEE700BF8C00002081
:10020C00BC00002036010020243A00086C010020BC
:10021C00EC00002034010020443A00083801002092
:10022C0080B594B000AF07F12803282200211846AE
:10023C0002F064FF07F1140300221A605A609A60FE
:10024C00DA601A613B1D00221A605A609A60DA600B
:10025C000123BB624FF48033FB6200233B63012319
:10026C00BB6302237B644FF48033BB644FF4E01315
:10027C00FB6407F12803184601F076FB0346002BBC
:10028C0001D000F0FDF80F237B610223BB6100233A
:10029C00FB614FF480633B6200237B6207F1140324
:1002AC000221184601F0E2FD0346002B01D000F0BC
:1002BC00E7F802237B604FF40043FB603B1D1846BC
:1002CC0001F062FF0346002B01D000F0D9F800BF0B
:1002DC005037BD4680BD000080B584B000AF3B1DDB
:1002EC0000221A605A609A60184B194A1A60174B10
:1002FC0000229A60154B01221A73144B00221A75B6
:10030C00124B4FF46022DA61104B00225A600F4BF3
:10031C0001221A610D4800F0DDFA0346002B01D0D2
:10032C0000F0AEF808237B600123BB600023FB6068
:10033C003B1D1946054800F037FE0346002B01D043
:10034C0000F09EF800BF1037BD4680BD8C00002029
:10035C000024014080B584B000AF3B1D00221A6020
:10036C005A609A60184B194A1A60174B00229A600F
:10037C00154B00221A73144B00221A75124B4FF4B2
:10038C006022DA61104B00225A600F4B01221A6175
:10039C000D4800F09FFA0346002B01D000F070F8D6
:1003AC0009237B600123BB600023FB603B1D1946C6
:1003BC00054800F0F9FD0346002B01D000F060F871
:1003CC0000BF1037BD4680BDBC0000200028014096
:1003DC0080B500AF114B124A1A60104B4FF41652F5
:1003EC005A600E4B00229A600C4B0022DA600B4BC9
:1003FC0000221A61094B0C225A61084B00229A61A7
:10040C00064B0022DA61054802F02AF80346002B5D
:10041C0001D000F035F800BF80BD00BFEC0000201B
:10042C000038014080B485B000AF144B9B69134A6F
:10043C0043F020039361114B9B6903F02003FB6095
:10044C00FB680E4B9B690D4A43F0080393610B4B01
:10045C009B6903F00803BB60BB68084B9B69074AA8
:10046C0043F004039361054B9B6903F004037B6029
:10047C007B6800BF1437BD4680BC7047001002403B
:10048C0080B400AF72B600BFFEE7000080B485B048
:10049C0000AF154B9B69144A43F001039361124B57
:1004AC009B6903F00103BB60BB680F4BDB690E4A11
:1004BC0043F08053D3610C4BDB6903F080537B60BA
:1004CC007B680A4B5B68FB60FB6823F0E063FB60B6
:1004DC00FB6843F00073FB60044AFB68536000BF89
:1004EC001437BD4680BC704700100240000001402C
:1004FC0080B58AB000AF786007F1180300221A604B
:10050C005A609A60DA607B681B68304A93422AD141
:10051C002F4B9B692E4A43F4007393612C4B9B69C0
:10052C0003F400737B617B69294B9B69284A43F078
:10053C0008039361264B9B6903F008033B613B69FD
:10054C000123BB610323FB6107F118031946214802
:10055C0001F086F800220021122000F098FF1220F2
:10056C0000F0B1FF2EE07B681B681B4A934229D137
:10057C00174B9B69164A43F480639361144B9B6938
:10058C0003F48063FB60FB68114B9B69104A43F0DA
:10059C00080393610E4B9B6903F00803BB60BB68B7
:1005AC000223BB610323FB6107F1180319460948B9
:1005BC0001F056F800220021122000F068FF1220F2
:1005CC0000F081FF00BF2837BD4680BD00240140EC
:1005DC0000100240000C01400028014080B588B09A
:1005EC0000AF786007F1100300221A605A609A601D
:1005FC00DA607B681B68204A934239D11F4B9B6998
:10060C001E4A43F4804393611C4B9B6903F4804363
:10061C00FB60FB68194B9B69184A43F00403936118
:10062C00164B9B6903F00403BB60BB684FF400736B
:10063C003B6102237B610323FB6107F11003194625
:10064C000F4801F00DF84FF480633B6100237B6190
:10065C000023BB6107F110031946094801F000F8AB
:10066C0000220021252000F012FF252000F02BFF96
:10067C0000BF2037BD4680BD00380140001002404D
:10068C000008014080B400AFFEE780B400AFFEE785
:10069C0080B400AFFEE780B400AFFEE780B400AFDB
:1006AC00FEE780B400AF00BFBD4680BC704780B48D
:1006BC0000AF00BFBD4680BC704780B400AF00BF28
:1006CC00BD4680BC704780B500AF00F0C3F800BFDA
:1006DC0080BD000080B500AF034800F093FB0348D9
:1006EC0000F090FB00BF80BD8C000020BC000020FF
:1006FC0080B500AF024801F087FF00BF80BD00BF8E
:10070C00EC00002080B586B000AF7860144A154B21
:10071C00D31A7B617B693B61134B1B68002B02D1A5
:10072C00114B124A1A60104B1A687B6813443A69D1
:10073C009A4207D202F0B8FC03460C221A604FF022
:10074C00FF3309E0084B1B68FB60074B1A687B689A
:10075C001344054A1360FB6818461837BD4680BD24
:10076C000050002000040000A0010020B80100206F
:10077C0080B400AF00BFBD4680BC7047FFF7F8FFE8
:10078C000B480C490C4A002302E0D458C4500433E3
:10079C00C4188C42F9D3094A094C002301E01360B8
:1007AC000432A242FBD302F085FCFFF7D1FC704768
:1007BC000000002070000020E03A000870000020CB
:1007CC00B8010020FEE7000080B500AF084B1B68A5
:1007DC00074A43F010031360032000F04DFE0F2076
:1007EC0000F008F8FFF752FE0023184680BD00BF4A
:1007FC000020024080B582B000AF7860124B1A68BE
:10080C00124B1B7819464FF47A73B3FBF1F3B2FB1E
:10081C00F3F3184600F065FE0346002B01D00123CC
:10082C000EE07B680F2B0AD8002279684FF0FF305E
:10083C0000F02DFE064A7B681360002300E00123C4
:10084C0018460837BD4680BD000000200800002077
:10085C000400002080B400AF054B1B781A46054BF2
:10086C001B681344034A136000BFBD4680BC70472D
:10087C0008000020A401002080B400AF024B1B68CC
:10088C001846BD4680BC7047A401002080B584B0DA
:10089C0000AF7860FFF7F0FFB8607B68FB60FB6827
:1008AC00B3F1FF3F05D00A4B1B781A46FB68134483
:1008BC00FB6000BFFFF7E0FF0246BB68D31AFA6883
:1008CC009A42F7D800BF00BF1037BD4680BD00BFAD
:1008DC000800002080B586B000AF78600023FB755F
:1008EC0000233B610023BB600023FB607B68002B73
:1008FC0001D10123BEE07B689B68002B7B689B6A5F
:10090C00002B09D17B680022DA627B68002283F815
:10091C0024207868FFF7ECFD786800F097FC03461C
:10092C00FB757B689B6A03F01003002B40F09980E9
:10093C00FB7D002B40F095807B689B6A23F48853E9
:10094C0023F0020343F002027B689A627B685A68C8
:10095C007B68DB691A437B681B7B5B001343BA68BB
:10096C001343BB607B689B68B3F5807F03D07B68C7
:10097C009B68012B02D14FF4807300E000233A698D
:10098C0013433B617B681B7D012B19D17B681B7B5F
:10099C00002B09D17B689B69013B5A033B691343CC
:1009AC0043F400633B610BE07B689B6A43F02002DD
:1009BC007B689A627B68DB6A43F001027B68DA62CF
:1009CC007B681B685B6823F469417B681B683A6928
:1009DC000A435A607B681B689A68284B13407A68F4
:1009EC001268B9680B4393607B689B68B3F5807F92
:1009FC0003D07B689B68012B04D17B681B69013B8E
:100A0C001B05FB607B681B68DB6A23F470017B6849
:100A1C001B68FA680A43DA627B681B689A68184B91
:100A2C001340BA689A420BD17B680022DA627B6869
:100A3C009B6A23F0030343F001027B689A6218E07F
:100A4C007B689B6A23F0120343F010027B689A6266
:100A5C007B68DB6A43F001027B68DA620123FB7579
:100A6C0007E07B689B6A43F010027B689A62012363
:100A7C00FB75FB7D18461837BD4680BDFDF7E1FFC1
:100A8C00FE0E1FFF80B584B000AF78600023FB73AF
:100A9C007B6893F82430012B01D1022398E07B680A
:100AAC00012283F82420786800F076FB0346FB7360
:100ABC00FB7B002B40F087807B689B6A23F44073A0
:100ACC0023F0010343F480727B689A627B681B6895
:100ADC00414A934205D1414B5B6803F47023002BD0
:100AEC0015D17B689B6A23F480127B689A627B68C1
:100AFC001B685B6803F48063002B26D07B689B6AC1
:100B0C0023F4405343F480527B689A621DE07B6867
:100B1C009B6A43F480127B689A627B681B682F4A3D
:100B2C00934204D07B681B682B4A93420DD12B4B0C
:100B3C005B6803F48063002B07D07B689B6A23F40B
:100B4C00405343F480527B689A627B689B6A03F43F
:100B5C008053002B06D07B68DB6A23F006027B688F
:100B6C00DA6202E07B680022DA627B68002283F89A
:100B7C0024207B681B686FF002021A607B681B687C
:100B8C009B6803F46023B3F5602F13D17B681B685B
:100B9C00114A934205D1114B5B6803F47023002B6F
:100BAC0008D17B681B689A687B681B6842F4A002BA
:100BBC009A600CE07B681B689A687B681B6842F43F
:100BCC0080129A6003E07B68002283F82420FB7B70
:100BDC0018461037BD4680BD002801400024014056
:100BEC0090B587B000AF7860396000237B6100233B
:100BFC00FB6000233B61FFF73FFE78617B681B685D
:100C0C009B6803F48073002B0BD07B689B6A43F0CA
:100C1C0020027B689A627B68002283F824200123DF
:100C2C00D3E07B681B685B6803F48073002B31D1C5
:100C3C007B681B68DB6A03F47003002B2AD121E06C
:100C4C003B68B3F1FF3F1DD03B68002B07D0FFF78B
:100C5C0013FE02467B69D31A3A689A4212D27B6819
:100C6C001B681B6803F00203002B0BD17B689B6A8B
:100C7C0043F004027B689A627B68002283F824208C
:100C8C000323A2E07B681B681B6803F00203002BA4
:100C9C00D6D070E04F4B1C68022001F02BFB0346B2
:100CAC00B4FBF3F27B681B6819694B4B0B40002BB0
:100CBC0018D17B681B68D968484B0B40002B11D1AD
:100CCC007B681B681969464B0B40002B08D17B686D
:100CDC001B68D968434B0B40002B01D1142320E037
:100CEC0029231EE07B681B6819693D4B0B40002BC8
:100CFC0006D17B681B68D9683A4B0B40002B0DD092
:100D0C007B681B681969384B0B40002B08D17B683A
:100D1C001B68D968344B0B40002B01D1542300E0E5
:100D2C00FC2302FB03F33B6121E03B68B3F1FF3F83
:100D3C001AD03B68002B07D0FFF79EFD02467B695B
:100D4C00D31A3A689A420FD2FB683A699A420BD985
:100D5C007B689B6A43F004027B689A627B68002282
:100D6C0083F82420032330E0FB680133FB60FB682D
:100D7C003A699A42D9D87B681B686FF012021A60E4
:100D8C007B689B6A43F400727B689A627B681B6881
:100D9C009B6803F46023B3F5602F15D17B681B7B34
:100DAC00002B11D17B689B6A23F480727B689A625A
:100DBC007B689B6A03F48053002B05D17B689B6A8C
:100DCC0043F001027B689A62002318461C37BD462B
:100DDC0090BD00BF000000202449922424499200B9
:100DEC0092244912922449004992240080B483B081
:100DFC0000AF78607B681B68DB6C18460C37BD460F
:100E0C0080BC704780B584B000AF78607B681B688D
:100E1C001B68FB607B681B685B68BB60BB6803F08E
:100E2C002003002B3ED0FB6803F00203002B39D0CB
:100E3C007B689B6A03F01003002B05D17B689B6ACF
:100E4C0043F400727B689A627B681B689B6803F4AE
:100E5C006023B3F5602F1DD17B681B7B002B19D150
:100E6C007B681B685A687B681B6822F020025A60FA
:100E7C007B689B6A23F480727B689A627B689B6AAE
:100E8C0003F48053002B05D17B689B6A43F001026D
:100E9C007B689A62786800F074F87B681B686FF066
:100EAC0012021A60BB6803F08003002B4DD0FB6864
:100EBC0003F00403002B48D07B689B6A03F01003FB
:100ECC00002B05D17B689B6A43F400527B689A62C5
:100EDC007B681B689B6803F4E043B3F5E04F12D0CA
:100EEC007B681B685B6803F48063002B25D17B68EF
:100EFC001B689B6803F46023B3F5602F1DD17B68DE
:100F0C001B7B002B19D17B681B685A687B681B689C
:100F1C0022F080025A607B689B6A23F480527B68C3
:100F2C009A627B689B6A03F48073002B05D17B6803
:100F3C009B6A43F001027B689A62786800F0C7F9FB
:100F4C007B681B686FF00C021A60BB6803F04003EF
:100F5C00002B12D0FB6803F00103002B0DD07B6833
:100F6C009B6A43F480327B689A62786800F012F8CE
:100F7C007B681B686FF001021A6000BF1037BD461A
:100F8C0080BD80B483B000AF786000BF0C37BD4625
:100F9C0080BC704780B483B000AF786000BF0C3762
:100FAC00BD4680BC7047000080B485B000AF78604F
:100FBC0039600023FB730023BB607B6893F82430FB
:100FCC00012B01D10223DCE07B68012283F8242071
:100FDC003B685B68062B1CD87B681B68596B3B68AD
:100FEC005A6813469B001344053B1F2202FA03F375
:100FFC00DB4319403B6818683B685A6813469B00F2
:10100C001344053B00FA03F27B681B680A435A63DE
:10101C003CE03B685B680C2B1CD87B681B68196B2D
:10102C003B685A6813469B001344233B1F2202FA69
:10103C0003F3DB4319403B6818683B685A68134656
:10104C009B001344233B00FA03F27B681B680A43A2
:10105C001A631BE07B681B68D96A3B685A681346A5
:10106C009B001344413B1F2202FA03F3DB4319405C
:10107C003B6818683B685A6813469B001344413B15
:10108C0000FA03F27B681B680A43DA623B681B6850
:10109C00092B1CD97B681B68D9683B681A681346F6
:1010AC005B0013441E3B072202FA03F3DB43194097
:1010BC003B6898683B681A6813465B0013441E3BF8
:1010CC0000FA03F27B681B680A43DA6019E07B685C
:1010DC001B6819693B681A6813465B0013440722A6
:1010EC0002FA03F3DB4319403B6898683B681A68C3
:1010FC0013465B00134400FA03F27B681B680A4337
:10110C001A613B681B68102B03D03B681B68112BC2
:10111C0032D17B681B681D4A934225D17B681B68C2
:10112C009B6803F40003002B26D17B681B689A682C
:10113C007B681B6842F400029A603B681B68102BAA
:10114C001AD1134B1B68134AA2FB03239A0C1346A8
:10115C009B0013445B00BB6002E0BB68013BBB60BF
:10116C00BB68002BF9D107E07B689B6A43F0200237
:10117C007B689A620123FB737B68002283F824202E
:10118C00FB7B18461437BD4680BC704700240140D9
:10119C000000002083DE1B4380B584B000AF786074
:1011AC000023FB600023BB607B681B689B6803F01B
:1011BC000103012B40D07B681B689A687B681B6815
:1011CC0042F001029A601F4B1B681F4AA2FB0323CB
:1011DC009B0CBB6002E0BB68013BBB60BB68002B97
:1011EC00F9D1FFF749FBF8601FE0FFF745FB02461A
:1011FC00FB68D31A022B18D97B681B689B6803F019
:10120C000103012B11D07B689B6A43F010027B68B1
:10121C009A627B68DB6A43F001027B68DA627B6866
:10122C00002283F82420012307E07B681B689B685D
:10123C0003F00103012BD8D1002318461037BD460B
:10124C0080BD00BF0000002083DE1B4380B584B04E
:10125C0000AF78600023FB607B681B689B6803F021
:10126C000103012B2ED17B681B689A687B681B6875
:10127C0022F001029A60FFF7FFFAF8601BE0FFF71B
:10128C00FBFA0246FB68D31A022B14D97B681B6845
:10129C009B6803F00103012B0DD17B689B6A43F023
:1012AC0010027B689A627B68DB6A43F001027B6800
:1012BC00DA62012307E07B681B689B6803F001037B
:1012CC00012BDCD0002318461037BD4680BD80B4FE
:1012DC0083B000AF786000BF0C37BD4680BC704750
:1012EC0080B485B000AF78607B6803F00703FB60C7
:1012FC000C4BDB68BB60BA684FF6FF031340BB6056
:10130C00FB681A02BB68134343F0BF6343F400331A
:10131C00BB60044ABB68D36000BF1437BD4680BCB9
:10132C00704700BF00ED00E080B400AF044BDB68F9
:10133C001B0A03F007031846BD4680BC704700BF6C
:10134C0000ED00E080B483B000AF0346FB7197F969
:10135C000730002B0BDBFB7903F01F02064997F9D2
:10136C0007305B09012000FA02F241F8232000BF8C
:10137C000C37BD4680BC704700E100E080B483B000
:10138C0000AF03463960FB7197F90730002B0ADB7D
:10139C003B68DAB20C4997F907301201D2B20B4410
:1013AC0083F800230AE03B68DAB20849FB7903F0C2
:1013BC000F03043B1201D2B20B441A7600BF0C3758
:1013CC00BD4680BC704700BF00E100E000ED00E0CE
:1013DC0080B489B000AFF860B9607A60FB6803F044
:1013EC000703FB61FB69C3F10703042B28BF04232C
:1013FC00BB61FB690433062B02D9FB69033B00E09C
:10140C0000237B614FF0FF32BB6902FA03F3DA432E
:10141C00BB681A407B699A404FF0FF317B6901FA37
:10142C0003F3D9437B680B40134318462437BD465E
:10143C0080BC704780B582B000AF78607B68013BA0
:10144C00B3F1807F01D301230FE00A4A7B68013B93
:10145C0053600F214FF0FF30FFF790FF054B002238
:10146C009A60044B07221A60002318460837BD46C1
:10147C0080BD00BF10E000E080B582B000AF7860A6
:10148C007868FFF72DFF00BF0837BD4680BD80B5DB
:10149C0086B000AF0346B9607A60FB7300237B61B2
:1014AC00FFF742FF78617A68B9687869FFF790FFB7
:1014BC00024697F90F3011461846FFF75FFF00BF41
:1014CC001837BD4680BD80B582B000AF0346FB71B6
:1014DC0097F907301846FFF735FF00BF0837BD46B0
:1014EC0080BD80B582B000AF78607868FFF7A2FF4E
:1014FC00034618460837BD4680BD80B485B000AFA2
:10150C0078600023FB737B6893F82130DBB2022BED
:10151C0008D07B6804229A637B68002283F8202021
:10152C00012320E07B681B681A687B681B6822F02B
:10153C000E021A607B681B681A687B681B6822F0B5
:10154C0001021A607B681A6C7B68DB6B012101FA63
:10155C0002F25A607B68012283F821207B6800220A
:10156C0083F82020FB7B18461437BD4680BC70479F
:10157C0080B584B000AF78600023FB737B6893F870
:10158C002130DBB2022B05D07B6804229A63012345
:10159C00FB7351E07B681B681A687B681B6822F040
:1015AC000E021A607B681B681A687B681B6822F045
:1015BC0001021A607B681B68224A934229D07B681F
:1015CC001B68214A934222D07B681B681F4A9342B6
:1015DC001AD07B681B681E4A934212D07B681B682A
:1015EC001C4A93420AD07B681B681B4A934202D167
:1015FC004FF480130EE04FF080730BE04FF4803308
:10160C0008E04FF4805305E04FF4807302E01023A0
:10161C0000E00123114A53607B68012283F82120EA
:10162C007B68002283F820207B685B6B002B03D047
:10163C007B685B6B78689847FB7B18461037BD4618
:10164C0080BD00BF080002401C0002403000024078
:10165C0044000240580002406C000240000002406E
:10166C0080B48BB000AF7860396000237B620023BC
:10167C003B6269E101227B6A02FA03F3FB613B687E
:10168C001B68FA691340BB61BA69FB699A4240F066
:10169C0058813B685B689A4A93425ED0984A934261
:1016AC0075D8984A934258D0964A93426FD8964A26
:1016BC00934252D0944A934269D8944A93424CD064
:1016CC00924A934263D8924A934246D0904A9342AC
:1016DC005DD8122B2AD8122B59D801A252F823F01C
:1016EC0067170008411700085317000895170008E2
:1016FC009B1700089B1700089B1700089B170008F6
:10170C009B1700089B1700089B1700089B170008E5
:10171C009B1700089B1700089B1700089B170008D5
:10172C009B170008491700085D170008794A934277
:10173C0013D02CE03B68DB683B6229E03B68DB683C
:10174C0004333B6224E03B68DB6808333B621FE0F8
:10175C003B68DB680C333B621AE03B689B68002BF0
:10176C0002D104233B6213E03B689B68012B05D13B
:10177C0008233B627B68FA691A6109E008233B6223
:10178C007B68FA695A6103E000233B6200E000BF0A
:10179C00BB69FF2B01D87B6801E07B6804337B615C
:1017AC00BB69FF2B02D87B6A9B0002E07B6A083B7B
:1017BC009B003B617B691A680F213B6901FA03F3BB
:1017CC00DB431A40396A3B6901FA03F31A437B691C
:1017DC001A603B685B6803F08053002B00F0B1800B
:1017EC004D4B9B694C4A43F0010393614A4B9B69F7
:1017FC0003F00103BB60BB68484A7B6A9B08023359
:10180C0052F82330FB607B6A03F003039B000F222A
:10181C0002FA03F3DB43FA681340FB607B68404A2F
:10182C00934213D07B683F4A93420DD07B683E4A6B
:10183C00934207D07B683D4A934201D1032306E0D3
:10184C00042304E0022302E0012300E000237A6A6F
:10185C0002F0030292009340FA681343FB602F4995
:10186C007B6A9B080233FA6841F823203B685B686B
:10187C0003F48013002B06D02D4B9A682C49BB69BE
:10188C0013438B6006E02A4B9A68BB69DB432849FB
:10189C0013408B603B685B6803F40013002B06D08D
:1018AC00234BDA682249BB691343CB6006E0204B1B
:1018BC00DA68BB69DB431E491340CB603B685B684D
:1018CC0003F40033002B06D0194B5A681849BB6936
:1018DC0013434B6006E0164B5A68BB69DB43144953
:1018EC0013404B603B685B6803F48033002B21D0C2
:1018FC000F4B1A680E49BB6913430B6021E000BF04
:10190C0000003210000031100000221000002110E5
:10191C0000001210000011100010024000000140E5
:10192C0000080140000C014000100140001401406F
:10193C00000401400B4B1A68BB69DB430949134097
:10194C000B607B6A01337B623B681A687B6A22FA04
:10195C0003F3002B7FF48EAE00BF00BF2C37BD46C7
:10196C0080BC70470004014080B586B000AF786041
:10197C007B68002B01D1012372E27B681B6803F0AA
:10198C000103002B00F08780924B5B6803F00C0383
:10199C00042B0CD08F4B5B6803F00C03082B12D17B
:1019AC008C4B5B6803F48033B3F5803F0BD1894BD0
:1019BC001B6803F40033002B6CD07B685B68002B36
:1019CC0068D101234CE27B685B68B3F5803F06D19C
:1019DC00804B1B687F4A43F4803313602EE07B6896
:1019EC005B68002B0CD17B4B1B687A4A23F4803349
:1019FC001360784B1B68774A23F4802313601DE037
:101A0C007B685B68B3F5A02F0CD1724B1B68714AD5
:101A1C0043F4802313606F4B1B686E4A43F480338E
:101A2C0013600BE06B4B1B686A4A23F48033136022
:101A3C00684B1B68674A23F4802313607B685B68E0
:101A4C00002B13D0FEF718FF386108E0FEF714FFE7
:101A5C0002463B69D31A642B01D9032300E25D4B88
:101A6C001B6803F40033002BF0D014E0FEF704FFE6
:101A7C00386108E0FEF700FF02463B69D31A642B7D
:101A8C0001D90323ECE1534B1B6803F40033002B07
:101A9C00F0D100E000BF7B681B6803F00203002B51
:101AAC0063D04C4B5B6803F00C03002B0BD0494B01
:101ABC005B6803F00C03082B1CD1464B5B6803F4EA
:101ACC008033002B16D1434B1B6803F00203002B11
:101ADC0005D07B681B69012B01D00123C0E13D4B74
:101AEC001B6823F0F8027B685B69DB003949134300
:101AFC000B603AE07B681B69002B20D0364B01222F
:101B0C001A60FEF7B9FE386108E0FEF7B5FE024632
:101B1C003B69D31A022B01D90323A1E12D4B1B687E
:101B2C0003F00203002BF0D02A4B1B6823F0F802C1
:101B3C007B685B69DB00274913430B6015E0264B80
:101B4C0000221A60FEF798FE386108E0FEF794FE5A
:101B5C0002463B69D31A022B01D9032380E11D4BAA
:101B6C001B6803F00203002BF0D17B681B6803F0A9
:101B7C000803002B3AD07B689B69002B19D0174BBC
:101B8C0001221A60FEF778FE386108E0FEF774FE59
:101B9C0002463B69D31A022B01D9032360E10D4B9A
:101BAC005B6A03F00203002BF0D0012000F0CEFAA8
:101BBC001CE00A4B00221A60FEF75EFE38610FE053
:101BCC00FEF75AFE02463B69D31A022B08D90323AF
:101BDC0046E100BF00100240000042428004424235
:101BEC00924B5B6A03F00203002BE9D17B681B6804
:101BFC0003F00403002B00F0A6800023FB758B4B35
:101C0C00DB6903F08053002B0DD1884BDB69874ACD
:101C1C0043F08053D361854BDB6903F08053BB6089
:101C2C00BB680123FB75824B1B6803F48073002B8C
:101C3C0018D17F4B1B687E4A43F480731360FEF708
:101C4C001BFE386108E0FEF717FE02463B69D31A0B
:101C5C00642B01D9032303E1754B1B6803F48073D8
:101C6C00002BF0D07B68DB68012B06D16F4B1B6A15
:101C7C006E4A43F0010313622DE07B68DB68002B96
:101C8C000CD16A4B1B6A694A23F001031362674B40
:101C9C001B6A664A23F0040313621CE07B68DB6852
:101CAC00052B0CD1614B1B6A604A43F00403136291
:101CBC005E4B1B6A5D4A43F0010313620BE05B4B06
:101CCC001B6A5A4A23F001031362584B1B6A574A8A
:101CDC0023F0040313627B68DB68002B15D0FEF73E
:101CEC00CBFD38610AE0FEF7C7FD02463B69D31A0B
:101CFC0041F28832934201D90323B1E04B4B1B6A6A
:101D0C0003F00203002BEED014E0FEF7B5FD3861B2
:101D1C000AE0FEF7B1FD02463B69D31A41F2883264
:101D2C00934201D903239BE0404B1B6A03F002034F
:101D3C00002BEED1FB7D012B05D13C4BDB693B4AE3
:101D4C0023F08053D3617B68DB69002B00F0878024
:101D5C00364B5B6803F00C03082B61D07B68DB69A6
:101D6C00022B46D1334B00221A60FEF785FD3861F9
:101D7C0008E0FEF781FD02463B69D31A022B01D91C
:101D8C0003236DE0294B1B6803F00073002BF0D18B
:101D9C007B681B6AB3F5803F08D1244B5B6823F446
:101DAC0000327B689B68214913434B601F4B5B6877
:101DBC0023F474127B68196A7B685B6A0B431B49BA
:101DCC0013434B601B4B01221A60FEF755FD386123
:101DDC0008E0FEF751FD02463B69D31A022B01D9EC
:101DEC0003233DE0114B1B6803F00073002BF0D074
:101DFC0035E0104B00221A60FEF73EFD386108E01A
:101E0C00FEF73AFD02463B69D31A022B01D9032394
:101E1C0026E0064B1B6803F00073002BF0D11EE08C
:101E2C007B68DB69012B07D1012319E0001002400C
:101E3C0000700040600042420B4B5B68FB60FB682B
:101E4C0003F480327B681B6A9A4206D1FB6803F468
:101E5C0070127B685B6A9A4201D0012300E0002378
:101E6C0018461837BD4680BD0010024080B584B0BE
:101E7C0000AF786039607B68002B01D10123D0E082
:101E8C006A4B1B6803F007033A689A4210D9674BF8
:101E9C001B6823F0070265493B6813430B60634BD7
:101EAC001B6803F007033A689A4201D00123B8E09B
:101EBC007B681B6803F00203002B20D07B681B6837
:101ECC0003F00403002B05D0594B5B68584A43F4CC
:101EDC00E06353607B681B6803F00803002B05D09C
:101EEC00534B5B68524A43F460535360504B5B68EE
:101EFC0023F0F0027B689B684D4913434B607B6871
:101F0C001B6803F00103002B40D07B685B68012B3E
:101F1C0007D1474B1B6803F40033002B15D1012369
:101F2C007FE07B685B68022B07D1414B1B6803F099
:101F3C000073002B09D1012373E03D4B1B6803F0A8
:101F4C000203002B01D101236BE0394B5B6823F0BA
:101F5C0003027B685B68364913434B60FEF78CFCCD
:101F6C00F8600AE0FEF788FC0246FB68D31A41F2DF
:101F7C008832934201D9032353E02D4B5B6803F065
:101F8C000C027B685B689B009A42EBD1274B1B6869
:101F9C0003F007033A689A4210D2244B1B6823F0D3
:101FAC00070222493B6813430B60204B1B6803F06C
:101FBC0007033A689A4201D0012332E07B681B6820
:101FCC0003F00403002B08D0194B5B6823F4E06288
:101FDC007B68DB68164913434B607B681B6803F016
:101FEC000803002B09D0124B5B6823F460527B680A
:101FFC001B69DB000E4913434B6000F021F80246CD
:10200C000B4B5B681B0903F00F030A49CB5C22FAEC
:10201C0003F3094A1360094B1B681846FEF7EAFBE9
:10202C00002318461037BD4680BD00BF002002407B
:10203C0000100240643A0008000000200400002058
:10204C0080B487B000AF0023FB600023BB6000238B
:10205C007B6100237B6000233B611E4B5B68FB6054
:10206C00FB6803F00C03042B02D0082B03D027E0F1
:10207C00194B3B6127E0FB689B0C03F00F03174ADD
:10208C00D35C7B60FB6803F48033002B10D0114BC6
:10209C005B685B0C03F00103114AD35CBB607B688B
:1020AC000D4A03FB02F2BB68B2FBF3F37B6104E065
:1020BC007B680C4A02FB03F37B617B693B6102E0AA
:1020CC00054B3B6100BF3B6918461C37BD4680BCC5
:1020DC00704700BF0010024000127A007C3A0008E2
:1020EC008C3A000800093D0080B400AF024B1B681D
:1020FC001846BD4680BC70470000002080B500AF7C
:10210C00FFF7F2FF0246054B5B681B0A03F007035F
:10211C000349CB5C22FA03F3184680BD0010024041
:10212C00743A000880B500AFFFF7DEFF0246054B9E
:10213C005B68DB0A03F007030349CB5C22FA03F369
:10214C00184680BD00100240743A000880B485B077
:10215C0000AF78600A4B1B680A4AA2FB03235B0A98
:10216C007A6802FB03F3FB6000BFFB685A1EFA603F
:10217C00002BF9D100BF00BF1437BD4680BC70479F
:10218C0000000020D34D621080B586B000AF78609F
:10219C0000233B610023FB607B681B6803F0010399
:1021AC00002B7DD00023FB754F4BDB6903F0805374
:1021BC00002B0DD14C4BDB694B4A43F08053D36160
:1021CC00494BDB6903F08053BB60BB680123FB7593
:1021DC00464B1B6803F48073002B18D1434B1B68D0
:1021EC00424A43F480731360FEF746FB386108E003
:1021FC00FEF742FB02463B69D31A642B01D9032339
:10220C006DE03A4B1B6803F48073002BF0D0364B17
:10221C001B6A03F44073FB60FB68002B2ED07B68B9
:10222C005B6803F44073FA689A4227D02E4B1B6A02
:10223C0023F44073FB602E4B01221A602C4B0022BE
:10224C001A60294AFB681362FB6803F00103002B38
:10225C0014D0FEF711FB38610AE0FEF70DFB0246C5
:10226C003B69D31A41F28832934201D9032336E0F9
:10227C001D4B1B6A03F00203002BEED01A4B1B6A9A
:10228C0023F440727B685B68174913430B62FB7D38
:10229C00012B05D1144BDB69134A23F08053D36116
:1022AC007B681B6803F00203002B08D00E4B5B68A5
:1022BC0023F440427B689B680B4913434B607B685B
:1022CC001B6803F01003002B08D0074B5B6823F44A
:1022DC0080027B68DB68044913434B60002318467B
:1022EC001837BD4680BD00BF001002400070004092
:1022FC004004424280B588B000AF786000237B6117
:10230C000023FB6100233B610023FB600023BB61C6
:10231C007B68102B0AD07B68102B00F28A807B68BC
:10232C00012B45D07B68022B75D082E0464B5B6855
:10233C00FB60454B1B6803F08073002B7BD0FB6864
:10234C009B0C03F00F03414AD35C3B61FB6803F425
:10235C008033002B15D03C4B5B685B0C03F0010306
:10236C003B4AD35C7B61FB6803F48033002B0DD0BC
:10237C00384A7B69B2FBF3F23B6902FB03F3FB6166
:10238C0004E03B69344A02FB03F3FB612E4B5B68B0
:10239C0003F48003B3F5800F02D1FB69BB614AE003
:1023AC00FB695B002D4AA2FB03235B08BB6142E087
:1023BC00254B1B6AFB60FB6803F44073B3F5807F0D
:1023CC0008D1FB6803F00203002B03D04FF4004349
:1023DC00BB611FE0FB6803F44073B3F5007F09D1C8
:1023EC00194B5B6A03F00203002B03D049F6404300
:1023FC00BB610FE0FB6803F44073B3F5407F1CD165
:10240C00114B1B6803F40033002B16D04FF22443FE
:10241C00BB6112E011E0FFF785FE02460A4B5B68D8
:10242C009B0B03F0030301335B00B2FBF3F3BB61C3
:10243C0004E000BF02E000BF00E000BFBB6918462B
:10244C002037BD4680BD00BF00100240903A000806
:10245C00A03A000800127A0000093D00ABAAAAAA13
:10246C0080B582B000AF78607B68002B01D101236E
:10247C0042E07B6893F84130DBB2002B06D17B68DD
:10248C00002283F840207868FEF7A8F87B682422A5
:10249C0083F841207B681B68DA687B681B6822F430
:1024AC000052DA60786800F071FD7B681B681A696D
:1024BC007B681B6822F490421A617B681B685A691E
:1024CC007B681B6822F02A025A617B681B68DA68F9
:1024DC007B681B6842F40052DA607B6800225A6405
:1024EC007B68202283F841207B68202283F84220DD
:1024FC007B6800225A63002318460837BD4680BD0E
:10250C0080B58AB002AFF860B9603B601346FB80BF
:10251C0000237B61FB6893F84130DBB2202B6DD13B
:10252C00BB68002B02D0FB88002B01D1012366E095
:10253C00FB6800225A64FB68212283F84120FEF7D5
:10254C009BF97861FB68FA889A84FB68FA88DA84CC
:10255C00FB689B68B3F5805F08D1FB681B69002B97
:10256C0004D10023FB61BB68BB6103E0BB68FB616A
:10257C000023BB612AE03B6800937B690022802129
:10258C00F86800F0F9FA0346002B01D0032336E07B
:10259C00FB69002B0BD1BB691B881A46FB681B68B7
:1025AC00C2F308025A60BB690233BB6107E0FB69E6
:1025BC001A78FB681B685A60FB690133FB61FB6886
:1025CC00DB8C9BB2013B9AB2FB68DA84FB68DB8C38
:1025DC009BB2002BCFD13B6800937B69002240213A
:1025EC00F86800F0C9FA0346002B01D0032306E07B
:1025FC00FB68202283F84120002300E002231846C8
:10260C002037BD4680BD000080B5BAB000AF786001
:10261C007B681B681B68C7F8E4307B681B68DB6849
:10262C00C7F8E0307B681B685B69C7F8DC300023B7
:10263C00C7F8D8300023C7F8D430D7F8E43003F00B
:10264C000F03C7F8D830D7F8D830002B0FD1D7F8F4
:10265C00E43003F02003002B09D0D7F8E03003F06E
:10266C002003002B03D0786800F0D1FB5BE2D7F895
:10267C00D830002B00F0DE80D7F8DC3003F00103FB
:10268C00002B06D1D7F8E03003F49073002B00F048
:10269C00D180D7F8E43003F00103002B0BD0D7F82E
:1026AC00E03003F48073002B05D07B685B6C43F047
:1026BC0001027B685A64D7F8E43003F00403002B62
:1026CC000BD0D7F8DC3003F00103002B05D07B686E
:1026DC005B6C43F002027B685A64D7F8E43003F079
:1026EC000203002B0BD0D7F8DC3003F00103002BD6
:1026FC0005D07B685B6C43F004027B685A64D7F8A6
:10270C00E43003F00803002B11D0D7F8E03003F0CD
:10271C002003002B05D1D7F8DC3003F00103002B8C
:10272C0005D07B685B6C43F008027B685A647B685D
:10273C005B6C002B00F0F281D7F8E43003F020033F
:10274C00002B08D0D7F8E03003F02003002B02D088
:10275C00786800F05CFB7B681B685B6903F04003E6
:10276C00002B14BF01230023DBB2C7F8D4307B68E5
:10277C005B6C03F00803002B03D1D7F8D430002B8B
:10278C004FD0786800F066FA7B681B685B6903F0D1
:10279C004003002B41D07B681B681433C7F89C3076
:1027AC00D7F89C3053E8003FC7F89830D7F89830EA
:1027BC0023F04003C7F8D0307B681B681433D7F87C
:1027CC00D020C7F8A820C7F8A430D7F8A410D7F8A1
:1027DC00A82041E80023C7F8A030D7F8A030002B80
:1027EC00D9D17B68DB6B002B13D07B68DB6B7E4A0B
:1027FC005A637B68DB6B1846FEF7BAFE0346002B68
:10280C0016D07B68DB6B5B6B7A68D26B1046984793
:10281C000EE0786800F09CF90AE0786800F098F90E
:10282C0006E0786800F094F97B6800225A6475E140
:10283C0000BF73E17B681B6B012B40F04F81D7F815
:10284C00E43003F01003002B00F04881D7F8E0309F
:10285C0003F01003002B00F041810023BB607B6868
:10286C001B681B68BB607B681B685B68BB60BB68D4
:10287C007B681B685B6903F04003002B00F0B6809B
:10288C007B68DB6B1B685B68A7F8BE30B7F8BE30A3
:10289C00002B00F045817B689B8DB7F8BE209A42D7
:1028AC0080F03E817B68B7F8BE20DA857B68DB6BF5
:1028BC009B69202B00F088807B681B680C33C7F861
:1028CC008830D7F8883053E8003FC7F88430D7F801
:1028DC00843023F48073C7F8B8307B681B680C33E2
:1028EC00D7F8B820C7F89420C7F89030D7F89010D4
:1028FC00D7F8942041E80023C7F88C30D7F88C30F7
:10290C00002BD9D17B681B6814337B677B6F53E832
:10291C00003F3B673B6F23F00103C7F8B4307B6883
:10292C001B681433D7F8B420C7F88020FB67F96F05
:10293C00D7F8802041E80023BB67BB6F002BE1D1A7
:10294C007B681B6814333B663B6E53E8003FFB65AA
:10295C00FB6D23F04003C7F8B0307B681B68143361
:10296C00D7F8B020FA66BB66B96EFA6E41E8002360
:10297C007B667B6E002BE3D17B68202283F84220A0
:10298C007B6800221A637B681B680C33FB64FB6C4E
:10299C0053E8003FBB64BB6C23F01003C7F8AC30AA
:1029AC007B681B680C33D7F8AC20BA657B65796DF6
:1029BC00BA6D41E800233B653B6D002BE3D17B688E
:1029CC00DB6B1846FEF799FD7B6802225A637B6825
:1029DC009A8D7B68DB8D9BB2D31A9BB219467868B3
:1029EC0000F0BFF89CE000BF252D00087B689A8D95
:1029FC007B68DB8D9BB2D31AA7F8CE307B68DB8D5E
:102A0C009BB2002B00F08E80B7F8CE30002B00F07C
:102A1C0089807B681B680C33BB63BB6B53E8003F3E
:102A2C007B637B6B23F49073C7F8C8307B681B689F
:102A3C000C33D7F8C8207A643B64396C7A6C41E863
:102A4C000023FB63FB6B002BE3D17B681B68143307
:102A5C007B627B6A53E8003F3B623B6A23F00103D5
:102A6C00C7F8C4307B681B681433D7F8C4203A63AA
:102A7C00FB62F96A3A6B41E80023BB62BB6A002B2C
:102A8C00E3D17B68202283F842207B6800221A6302
:102A9C007B681B680C333B613B6953E8003FFB6070
:102AAC00FB6823F01003C7F8C0307B681B680C333D
:102ABC00D7F8C020FA61BB61B969FA6941E8002313
:102ACC007B617B69002BE3D17B6802225A63B7F8E8
:102ADC00CE301946786800F044F823E0D7F8E4309B
:102AEC0003F08003002B09D0D7F8E03003F080030B
:102AFC00002B03D0786800F023F914E0D7F8E43009
:102B0C0003F04003002B0ED0D7F8E03003F0400365
:102B1C00002B08D0786800F062F904E000BF02E0F6
:102B2C0000BF00E000BFE837BD4680BD80B483B075
:102B3C0000AF786000BF0C37BD4680BC704780B4D6
:102B4C0083B000AF786000BF0C37BD4680BC7047C7
:102B5C0080B483B000AF786000BF0C37BD4680BC3A
:102B6C00704780B483B000AF78600B467B8000BFA9
:102B7C000C37BD4680BC704780B590B000AFF86094
:102B8C00B9603B601346FB7150E0BB6CB3F1FF3F87
:102B9C004CD0BB6C002B07D0FDF76EFE02463B6899
:102BAC00D31ABA6C9A4241D2FB681B680C33BB62D5
:102BBC00BB6A53E8003F7B627B6A23F4D073FB63F0
:102BCC00FB681B680C33FA6B7A633B63396B7A6B6B
:102BDC0041E80023FB62FB6A002BE5D1FB681B6814
:102BEC0014337B617B6953E8003F3B613B6923F005
:102BFC000103BB63FB681B681433BA6B3A62FB615D
:102C0C00F9693A6A41E80023BB61BB69002BE5D145
:102C1C00FB68202283F84120FB68202283F84220A5
:102C2C00FB68002283F8402003230FE0FB681B683D
:102C3C001A68BB681340BA689A420CBF0123002380
:102C4C00DBB21A46FB799A429FD0002318464037D4
:102C5C00BD4680BD80B495B000AF78607B681B68C2
:102C6C000C337B637B6B53E8003F3B633B6B23F480
:102C7C009073FB647B681B680C33FA6C3A64FB63DF
:102C8C00F96B3A6C41E80023BB63BB6B002BE5D1BD
:102C9C007B681B6814333B623B6A53E8003FFB6163
:102CAC00FB6923F00103BB647B681B681433BA6CAB
:102CBC00FA62BB62B96AFA6A41E800237B627B6AFA
:102CCC00002BE5D17B681B6B012B19D17B681B6832
:102CDC000C33FB60FB6853E8003FBB60BB6823F020
:102CEC0010037B647B681B680C337A6CBA617B6164
:102CFC007969BA6941E800233B613B69002BE5D156
:102D0C007B68202283F842207B6800221A6300BF74
:102D1C005437BD4680BC704780B584B000AF786036
:102D2C007B685B6AFB60FB680022DA85FB6800222B
:102D3C00DA84F868FFF70CFF00BF1037BD4680BD82
:102D4C0080B485B000AF78607B6893F84130DBB21B
:102D5C00212B3ED17B689B68B3F5805F14D17B68D7
:102D6C001B69002B10D17B681B6AFB60FB681B88FE
:102D7C001A467B681B68C2F308025A607B681B6AA0
:102D8C009A1C7B681A6208E07B681B6A591C7A687B
:102D9C0011621A787B681B685A607B68DB8C9BB26B
:102DAC00013B9BB27A681946D184002B0FD17B680A
:102DBC001B68DA687B681B6822F08002DA607B682B
:102DCC001B68DA687B681B6842F04002DA600023FB
:102DDC0000E0022318461437BD4680BC704780B50E
:102DEC0082B000AF78607B681B68DA687B681B6810
:102DFC0022F04002DA607B68202283F84120786858
:102E0C00FFF794FE002318460837BD4680BD80B5F9
:102E1C008CB000AF78607B6893F84230DBB2222B29
:102E2C0040F0AE807B689B68B3F5805F17D17B6800
:102E3C001B69002B13D10023FB627B689B6ABB626E
:102E4C007B681B685B689BB2C3F308039AB2BB6ACE
:102E5C001A807B689B6A9A1C7B689A6226E07B6866
:102E6C009B6AFB620023BB627B689B68B3F5805F47
:102E7C0007D07B689B68002B0AD17B681B69002BF1
:102E8C0006D17B681B685B68DAB2FB6A1A7008E0D3
:102E9C007B681B685B68DBB203F07F03DAB2FB6A0A
:102EAC001A707B689B6A5A1C7B689A627B68DB8D04
:102EBC009BB2013B9BB27A681946D185002B5DD140
:102ECC007B681B68DA687B681B6822F02002DA607A
:102EDC007B681B68DA687B681B6822F48072DA6096
:102EEC007B681B685A697B681B6822F001025A6177
:102EFC007B68202283F842207B6800225A637B681F
:102F0C001B6B012B35D17B6800221A637B681B6815
:102F1C000C337B617B6953E8003F3B613B6923F0D9
:102F2C0010037B627B681B680C337A6A3A62FB6124
:102F3C00F9693A6A41E80023BB61BB69002BE5D112
:102F4C007B681B681B6803F01003102B0AD100234D
:102F5C00FB607B681B681B68FB607B681B685B689D
:102F6C00FB60FB687B689B8D19467868FFF7F9FD61
:102F7C0002E07868FFF7E3FD002302E0002300E0A5
:102F8C00022318463037BD4680BD000080B584B0A2
:102F9C0000AF78607B681B681B6923F440517B6829
:102FAC00DA687B681B680A431A617B689A687B68DD
:102FBC001B691A437B685B691343BB607B681B68A6
:102FCC00DB6823F4B05323F00C037A681268B968F9
:102FDC000B43D3607B681B685B6923F440717B688F
:102FEC009A697B681B680A435A617B681B682C4A88
:102FFC00934203D1FFF796F8F86002E0FFF77EF8F2
:10300C00F860FA6813469B0013449A001A447B68D4
:10301C005B689B00B2FBF3F3224AA2FB03235B0920
:10302C001901FA6813469B0013449A001A447B68F2
:10303C005B689B00B2FBF3F21A4BA3FB02035B0928
:10304C00642000FB03F3D31A1B013233154AA2FB95
:10305C0003235B0903F0F0031944FA6813469B0041
:10306C0013449A001A447B685B689B00B2FBF3F232
:10307C000C4BA3FB02035B09642000FB03F3D31A84
:10308C001B013233074AA2FB03235B0903F00F0237
:10309C007B681B680A449A6000BF1037BD4680BD30
:1030AC00003801401F85EB51014B1868704700BF79
:1030BC000C00002070B500260C4D0D4C641BA410A8
:1030CC00A64209D100F09CFC00260A4D0A4C641B58
:1030DC00A410A64205D170BD55F8043B98470136A3
:1030EC00EEE755F8043B98470136F2E7D83A00086A
:1030FC00D83A0008D83A0008DC3A000803460244E3
:10310C00934200D1704703F8011BF9E70EB46FF03E
:10311C00004100B59CB01DAB029006900791049144
:10312C000848094953F8042B0591006802A901933A
:10313C0000F068F80022029B1A701CB05DF804EBDA
:10314C0003B070470C0000200802FFFF2DE9F04788
:10315C008E6882469E420C4690461F4638D88A8915
:10316C0012F4906F32D0256809690133A5EB01097F
:10317C0065694B4405EB450505EBD5756D109D4216
:10318C0038BF1D46530531D5294600F06FFB064666
:10319C0050B90C234FF0FF30CAF80030A38943F02C
:1031AC004003A381BDE8F0874A46216900F0CEFABE
:1031BC00A38923F4906343F08003A38126614E44DA
:1031CC0026603E466561A5EB0905A560BE4200D9A7
:1031DC003E4632464146206800F0C6FAA3680020FD
:1031EC009B1BA360236833442360DBE72A4600F073
:1031FC00B1FB06460028E1D15046216900F0CEFA19
:10320C00C7E700002DE9F04F98468B8907461B064F
:10321C000D4614469DB00ED50B6963B9402100F0E4
:10322C0025FB2860286120B90C233B604FF0FF3050
:10323C00D1E040236B610023099320238DF82930C2
:10324C0030234FF00109CDF80C80DFF8A4818DF804
:10325C002A3023469A4613F8012B0AB1252AF9D1B4
:10326C00BAEB040B0BD05B46224629463846FFF7D7
:10327C006DFF013000F0AA80099A5A4409929AF81D
:10328C000030002B00F0A28000234FF0FF32CDE97C
:10329C0005230AF1010A049307938DF853301A930E
:1032AC005446052214F8011B514800F041FA049AC7
:1032BC00D8B9D00644BF20238DF85330110744BF32
:1032CC002B238DF853309AF800302A2B15D0544606
:1032DC0000204FF00A0C079A214611F8013B303BB5
:1032EC00092B4ED9B0B1079214E0A0EB080309FAF0
:1032FC0003F31343A2460493D2E7039B191D1B68E7
:10330C000391002BBBBF5B4242F002020793079371
:10331C00B8BF049223782E2B0CD163782A2B35D18D
:10332C00039B02341A1D1B680392002BB8BF4FF08D
:10333C00FF330593DFF8BCA003225046217800F040
:10334C00F7F940B14023A0EB0A0003FA00F0049B0C
:10335C0001340343049314F8011B062226488DF80C
:10336C00281000F0E5F9002838D0244B1BBB039B38
:10337C00073323F0070308330393099B3344099362
:10338C0067E70C4601200CFB0232A5E700234FF047
:10339C000A0C194601340593204610F8012B303ADB
:1033AC00092A03D9002BC5D00591C3E70446012394
:1033BC000CFB0121F0E703AB00932A463846104B77
:1033CC0004A9AFF30080421C0646D6D1AB895B063C
:1033DC003FF52CAF09981DB0BDE8F08F03AB0093FF
:1033EC002A463846064B04A900F07CF8EBE700BFF0
:1033FC00A23A0008A83A0008AC3A00080000000005
:10340C00593100082DE9F047164699468A680B6930
:10341C0007469342B8BF1346336091F843200C46DD
:10342C00DDF820800AB1013333602368990642BF6E
:10343C00336802333360256815F0060506D104F1B4
:10344C00190AE36832689B1AAB4228DC94F84320D3
:10345C00131E226818BF012392062DD44946384604
:10346C0004F14302C047013020D02368E56803F023
:10347C000603042B18BF002532684FF00006A36822
:10348C0008BFAD1A226908BF25EAE5759342C4BF8F
:10349C009B1AED181A34B5421AD1002008E001230A
:1034AC00524649463846C047013003D14FF0FF30F1
:1034BC00BDE8F0870135C4E73020E11881F84300FE
:1034CC005A1C94F845102244023382F84310C5E785
:1034DC000123224649463846C0470130E6D0013622
:1034EC00D9E700002DE9FF470F7E9146782F8046E3
:1034FC000C469A460C9D01F1430207D8622F0AD85C
:10350C00002F00F0D980582F00F0A48004F1420560
:10351C0084F842703AE0A7F16303152BF6D801A1A9
:10352C0051F823F0893500089D350008193500083D
:10353C001935000819350008193500089D350008A3
:10354C001935000819350008193500081935000817
:10355C00AB360008CD3500088D360008193500084B
:10356C0019350008CD36000819350008CD3500088E
:10357C001935000819350008953600082B681A1DF6
:10358C001B682A6004F1420584F842300123A4E050
:10359C0020682968060601F104030AD50E682B6021
:1035AC00002E03DA2D23764284F843300A235E483A
:1035BC0019E00E6810F0400F2B6018BF36B2EFE721
:1035CC002B682068191D2960010601D51E6802E0D0
:1035DC004606FBD51E886F2F0CBF08230A235248C2
:1035EC00002184F843106568002DA8BF2168A560F0
:1035FC00A4BF21F0040121600EB9002D4DD0154659
:10360C00B6FBF3F103FB1167C75D05F8017D374687
:10361C00BB420E46F4D9082B0BD12368DE0708D524
:10362C00236961689942DEBF302305F8013C05F13E
:10363C00FF35521B22614B4621464046CDF800A077
:10364C0003AAFFF7DFFE01304CD14FF0FF3004B07E
:10365C00BDE8F087344881F845702968236851F833
:10366C00046B29601D0614D5DF0744BF43F020030B
:10367C0023601EB9236823F0200323601023AFE7D7
:10368C00236843F0200323607823284884F84530CE
:10369C00E3E7590648BFB6B2E6E71546BBE72B6829
:1036AC002668181D6169286035061B6801D51960EC
:1036BC0002E07006FBD51980002315462361BAE79A
:1036CC002B6800211A1D2A601D686268284600F0CC
:1036DC002FF808B1401B606063682361002384F8F5
:1036EC004330A8E72A46494640462369D047013073
:1036FC00ABD023689B0713D4E068039B9842B8BFF8
:10370C001846A4E70123324649464046D0470130CB
:10371C009BD00135E36803995B1AAB42F2DCEBE713
:10372C00002504F11906F5E7B33A0008C43A00087D
:10373C00034610B5C9B202449342184601D1002089
:10374C0003E0047801338C42F6D110BD0A44914257
:10375C0000F1FF3300D1704710B511F8014B9142C5
:10376C0003F8014FF9D110BD884210B501EB0204EA
:10377C0002D98442234607D8431EA14208D011F82F
:10378C00012B03F8012FF8E7014602448A4200D1CD
:10379C0010BD13F8014D02F8014DF7E738B5054699
:1037AC00002940D051F8043C0C1F002BB8BFE41882
:1037BC0000F010F91C4A136833B963601460284692
:1037CC00BDE8384000F00CB9A34208D92068211894
:1037DC008B4201BF19685B6809182160EDE71A4636
:1037EC005B680BB1A342FAD911685018A0420BD1F7
:1037FC0020680144501883421160E0D118685B685E
:10380C00014411605360DAE702D90C232B60D6E730
:10381C00206821188B4201BF19685B680918216068
:10382C0063605460CBE738BDA801002070B50E4E24
:10383C000C463168054611B900F0BCF830602146E1
:10384C00284600F0B7F8431C0AD0C41C24F003042B
:10385C00A04207D0211A284600F0ACF8013001D163
:10386C004FF0FF34204670BDAC0100202DE9F04133
:10387C00CD1C25F0030508350C2D38BF0C25002D6B
:10388C00074601DBA94205D90C2300263B603046D4
:10389C00BDE8F0812E4E00F09DF833681C4634BB19
:1038AC0029463846FFF7C2FF431C04464DD1346805
:1038BC002646002E40D123683146384604EB0308D7
:1038CC0000F078F880453AD1216803356D1A25F05F
:1038DC00030508350C2D38BF0C2538462946FFF753
:1038EC00A5FF01302BD023682B4423600EE0226807
:1038FC00521B1ED40B2A16D96119A342256018BF7E
:10390C005960636808BF316062514B60384604F1FE
:10391C000B0600F065F826F00706231DF21AB6D048
:10392C009B1BA350B3E76268A3420CBF32605A6082
:10393C00ECE723466468B2E734467668B9E70C23B3
:10394C0038463B6000F04CF8A1E72560DEE700BF8D
:10395C00A80100202DE9F041804614460E4621B9FD
:10396C001146BDE8F041FFF781BF2AB9FFF716FFFA
:10397C0025462846BDE8F08100F038F88442074619
:10398C0002D8B4EB500F12D821464046FFF76EFF19
:10399C0005460028EDD0BC422246314628BF3A46A7
:1039AC00FFF7D4FE31464046FFF7F8FEE1E7354617
:1039BC00DFE7000038B50023054D044608462B60B0
:1039CC00FCF7A0FE431C02D12B6803B1236038BD69
:1039DC00B0010020014800F011B800BFB401002074
:1039EC00014800F00CB800BFB401002051F8043CB1
:1039FC00181F002BBCBF0B58C0187047704770477E
:103A0C00F8B500BFF8BC08BC9E467047F8B500BFBF
:083A1C00F8BC08BC9E4670478F
:103A2400414443204348322056616C6F72206D61DB
:103A340078696D6F203A202575200D0A000000007A
:103A4400414443204348312056616C6F72206D65B8
:103A54006469646F203A202575200D0A0000000077
:103A6400000000000000000001020304060708092A
:103A7400000000000102030402030405060708090C
:103A84000A0B0C0D0E0F10100102000002030405B6
:103A9400060708090A0B0C0D0E0F10100102232D46
:103AA400302B2000686C4C00656667454647003043
:103AB4003132333435363738394142434445460090
:103AC4003031323334353637383961626364656690
:043AD40000000000EE
:043AD80031010008B0
:043ADC000D010008D0
:103AE0000024F4001000000001000000100000207D
:103AF00000000000000000000000000000000000C6
:103B000000000000000000000000000000000000B5
:103B100000000000000000000000000000000000A5
:103B20000000000000000000000000000000000095
:103B30000000000000000000000000000000000085
:103B40000000000000000000000000000000000075
:04000005080007895F
:00000001FF
